{
  "address": "0x0e1EC1B969675Bb1d7bD6500203A05b05Fe5d385",
  "abi": [
    {
      "inputs": [
        {
          "internalType": "address",
          "name": "initialOwner",
          "type": "address"
        }
      ],
      "stateMutability": "nonpayable",
      "type": "constructor"
    },
    {
      "inputs": [
        {
          "internalType": "address",
          "name": "owner",
          "type": "address"
        }
      ],
      "name": "OwnableInvalidOwner",
      "type": "error"
    },
    {
      "inputs": [
        {
          "internalType": "address",
          "name": "account",
          "type": "address"
        }
      ],
      "name": "OwnableUnauthorizedAccount",
      "type": "error"
    },
    {
      "anonymous": false,
      "inputs": [
        {
          "indexed": true,
          "internalType": "address",
          "name": "user",
          "type": "address"
        },
        {
          "indexed": false,
          "internalType": "bool",
          "name": "approved",
          "type": "bool"
        }
      ],
      "name": "KYCUpdated",
      "type": "event"
    },
    {
      "anonymous": false,
      "inputs": [
        {
          "indexed": true,
          "internalType": "address",
          "name": "previousOwner",
          "type": "address"
        },
        {
          "indexed": true,
          "internalType": "address",
          "name": "newOwner",
          "type": "address"
        }
      ],
      "name": "OwnershipTransferred",
      "type": "event"
    },
    {
      "inputs": [
        {
          "internalType": "address",
          "name": "from",
          "type": "address"
        },
        {
          "internalType": "address",
          "name": "to",
          "type": "address"
        }
      ],
      "name": "checkTransfer",
      "outputs": [
        {
          "internalType": "bool",
          "name": "",
          "type": "bool"
        }
      ],
      "stateMutability": "view",
      "type": "function"
    },
    {
      "inputs": [
        {
          "internalType": "address",
          "name": "",
          "type": "address"
        }
      ],
      "name": "isKYCd",
      "outputs": [
        {
          "internalType": "bool",
          "name": "",
          "type": "bool"
        }
      ],
      "stateMutability": "view",
      "type": "function"
    },
    {
      "inputs": [],
      "name": "owner",
      "outputs": [
        {
          "internalType": "address",
          "name": "",
          "type": "address"
        }
      ],
      "stateMutability": "view",
      "type": "function"
    },
    {
      "inputs": [],
      "name": "renounceOwnership",
      "outputs": [],
      "stateMutability": "nonpayable",
      "type": "function"
    },
    {
      "inputs": [
        {
          "internalType": "address",
          "name": "user",
          "type": "address"
        },
        {
          "internalType": "bool",
          "name": "ok",
          "type": "bool"
        }
      ],
      "name": "setKYC",
      "outputs": [],
      "stateMutability": "nonpayable",
      "type": "function"
    },
    {
      "inputs": [
        {
          "internalType": "address",
          "name": "newOwner",
          "type": "address"
        }
      ],
      "name": "transferOwnership",
      "outputs": [],
      "stateMutability": "nonpayable",
      "type": "function"
    }
  ],
  "transactionHash": "0x74c9c5b4bf9c143973c03ba6796fbe81d147041c0a8faaddf4b6b80a9490d54c",
  "args": [
    "0x50dAF6AB34514AbDA5b1259F347939e25065Cf16"
  ],
  "numDeployments": 1,
  "solcInputHash": "c41b43c801920a49fa544e2b9cf4bdc7",
  "bytecode": "0x608060405234801561001057600080fd5b5060405161045838038061045883398101604081905261002f916100be565b806001600160a01b03811661005e57604051631e4fbdf760e01b81526000600482015260240160405180910390fd5b6100678161006e565b50506100ee565b600080546001600160a01b038381166001600160a01b0319831681178455604051919092169283917f8be0079c531659141344cd1fd0a4f28419497f9722a3daafe3b4186f6b6457e09190a35050565b6000602082840312156100d057600080fd5b81516001600160a01b03811681146100e757600080fd5b9392505050565b61035b806100fd6000396000f3fe608060405234801561001057600080fd5b50600436106100625760003560e01c80635123bacc14610067578063715018a61461007c5780638c53a15f146100845780638da5cb5b146100bc578063d2ad07fb146100d7578063f2fde38b146100ea575b600080fd5b61007a61007536600461029b565b6100fd565b005b61007a610164565b6100a76100923660046102d7565b60016020526000908152604090205460ff1681565b60405190151581526020015b60405180910390f35b6000546040516001600160a01b0390911681526020016100b3565b6100a76100e53660046102f2565b610178565b61007a6100f83660046102d7565b6101bf565b610105610202565b6001600160a01b038216600081815260016020908152604091829020805460ff191685151590811790915591519182527f2bd9ea086356b3e60459594f10458ff8dae3d16fef711bb3dd479a06f745a246910160405180910390a25050565b61016c610202565b610176600061022f565b565b6001600160a01b03821660009081526001602052604081205460ff1680156101b857506001600160a01b03821660009081526001602052604090205460ff165b9392505050565b6101c7610202565b6001600160a01b0381166101f657604051631e4fbdf760e01b8152600060048201526024015b60405180910390fd5b6101ff8161022f565b50565b6000546001600160a01b031633146101765760405163118cdaa760e01b81523360048201526024016101ed565b600080546001600160a01b038381166001600160a01b0319831681178455604051919092169283917f8be0079c531659141344cd1fd0a4f28419497f9722a3daafe3b4186f6b6457e09190a35050565b80356001600160a01b038116811461029657600080fd5b919050565b600080604083850312156102ae57600080fd5b6102b78361027f565b9150602083013580151581146102cc57600080fd5b809150509250929050565b6000602082840312156102e957600080fd5b6101b88261027f565b6000806040838503121561030557600080fd5b61030e8361027f565b915061031c6020840161027f565b9050925092905056fea26469706673582212204197533b0799a870f8ac487257a55f044bb3af5c83af5d87bf82c2e340b1d0cd64736f6c63430008140033",
  "devdoc": {
    "errors": {
      "OwnableInvalidOwner(address)": [
        {
          "details": "The owner is not a valid owner account. (eg. `address(0)`)"
        }
      ],
      "OwnableUnauthorizedAccount(address)": [
        {
          "details": "The caller account is not authorized to perform an operation."
        }
      ]
    },
    "kind": "dev",
    "methods": {
      "owner()": {
        "details": "Returns the address of the current owner."
      },
      "renounceOwnership()": {
        "details": "Leaves the contract without owner. It will not be possible to call `onlyOwner` functions. Can only be called by the current owner. NOTE: Renouncing ownership will leave the contract without an owner, thereby disabling any functionality that is only available to the owner."
      },
      "transferOwnership(address)": {
        "details": "Transfers ownership of the contract to a new account (`newOwner`). Can only be called by the current owner."
      }
    },
    "version": 1
  },
  "userdoc": {
    "kind": "user",
    "methods": {},
    "version": 1
  },
  "storageLayout": {
    "storage": [
      {
        "astId": 8,
        "contract": "contracts/ComplianceRegistry.sol:ComplianceRegistry",
        "label": "_owner",
        "offset": 0,
        "slot": "0",
        "type": "t_address"
      },
      {
        "astId": 943,
        "contract": "contracts/ComplianceRegistry.sol:ComplianceRegistry",
        "label": "isKYCd",
        "offset": 0,
        "slot": "1",
        "type": "t_mapping(t_address,t_bool)"
      }
    ],
    "types": {
      "t_address": {
        "encoding": "inplace",
        "label": "address",
        "numberOfBytes": "20"
      },
      "t_bool": {
        "encoding": "inplace",
        "label": "bool",
        "numberOfBytes": "1"
      },
      "t_mapping(t_address,t_bool)": {
        "encoding": "mapping",
        "key": "t_address",
        "label": "mapping(address => bool)",
        "numberOfBytes": "32",
        "value": "t_bool"
      }
    }
  }
}